:020000040800F2
:1000000000000220551C0008D51B0008D71B000863
:10001000D91B0008DB1B0008DD1B000800000000E6
:10002000000000000000000000000000DF1B0008CE
:10003000E11B000800000000E31B0008E51B0008AE
:10004000A51C0008A51C0008A51C0008A51C00088C
:10005000A51C0008A51C0008A51C0008A51C00087C
:10006000A51C0008A51C0008A51C0008A51C00086C
:10007000A51C0008A51C0008A51C0008A51C00085C
:10008000A51C0008A51C0008ED1B000800000000CE
:10009000000000000000000000000000A51C000897
:1000A000A51C0008A51C0008A51C0008A51C00082C
:1000B000A51C0008A51C0008A51C0008A51C00081C
:1000C000A51C0008A51C0008A51C0008A51C00080C
:1000D000A51C0008A51C0008A51C000800000000C5
:1000E000A51C0008A51C0008A51C000800000000B5
:1000F000000000000000000000000000A51C000837
:1001000000000000A51C0008A51C0008A51C000894
:1001100000000000000000000000000000000000DF
:10012000A51C0008A51C0008A51C0008A51C0008AB
:10013000A51C0008000000000000000000000000F6
:10014000000000000000000000000000A51C0008E6
:10015000A51C0008A51C0008A51C0008A51C00087B
:10016000A51C0008A51C00080000000000000000FD
:10017000000000000000000000000000000000007F
:1001800000000000A51C00080000000000000000A6
:08019000A51C0008A51C0008D5
:1001C00010B5054C237833B9044B13B10448AFF391
:1001D00000800123237010BDC00900200000000032
:1001E0003C86000808B5034B1BB103490348AFF335
:1001F000008008BD00000000C40900203C86000803
:1002000081F0004102E000BF83F0004330B54FEAC7
:1002100041044FEA430594EA050F08BF90EA020F34
:100220001FBF54EA000C55EA020C7FEA645C7FEAC7
:10023000655C00F0E2804FEA5454D4EB5555B8BFEA
:100240006D420CDD2C4480EA020281EA030382EA5B
:10025000000083EA010180EA020281EA0303362DED
:1002600088BF30BD11F0004F4FEA01314FF4801CC0
:100270004CEA113102D0404261EB410113F0004FD2
:100280004FEA03334CEA133302D0524263EB430389
:1002900094EA050F00F0A780A4F10104D5F1200E27
:1002A0000DDB02FA0EFC22FA05F2801841F1000182
:1002B00003FA0EF2801843FA05F359410EE0A5F156
:1002C00020050EF1200E012A03FA0EFC28BF4CF087
:1002D000020C43FA05F3C01851EBE37101F000453D
:1002E00007D54FF0000EDCF1000C7EEB00006EEB4A
:1002F0000101B1F5801F1BD3B1F5001F0CD34908D4
:100300005FEA30004FEA3C0C04F101044FEA44522A
:1003100012F5800F80F09A80BCF1004F08BF5FEAB1
:10032000500C50F1000041EB045141EA050130BD91
:100330005FEA4C0C404141EB010111F4801FA4F134
:100340000104E9D191F0000F04BF01460020B1FA89
:1003500081F308BF2033A3F10B03B3F120020CDAC1
:100360000C3208DD02F1140CC2F10C0201FA0CF09F
:1003700021FA02F10CE002F11402D8BFC2F1200C04
:1003800001FA02F120FA0CFCDCBF41EA0C019040BA
:10039000E41AA2BF01EB0451294330BD6FEA040403
:1003A0001F3C1CDA0C340EDC04F11404C4F12002EE
:1003B00020FA04F001FA02F340EA030021FA04F300
:1003C00045EA030130BDC4F10C04C4F1200220FA57
:1003D00002F001FA04F340EA0300294630BD21FA95
:1003E00004F0294630BD94F0000F83F4801306BF5B
:1003F00081F480110134013D4EE77FEA645C18BF4F
:100400007FEA655C29D094EA050F08BF90EA020FE5
:1004100005D054EA000C04BF1946104630BD91EADD
:10042000030F1EBF0021002030BD5FEA545C05D1E0
:100430004000494128BF41F0004130BD14F580041F
:100440003CBF01F5801130BD01F0004545F0FE4193
:1004500041F470014FF0000030BD7FEA645C1ABFC8
:10046000194610467FEA655C1CBF0B46024650EAFF
:10047000013406BF52EA033591EA030F41F400212B
:1004800030BD00BF90F0000F04BF0021704730B5B1
:100490004FF4806404F132044FF000054FF0000186
:1004A00050E700BF90F0000F04BF0021704730B547
:1004B0004FF4806404F1320410F0004548BF40421C
:1004C0004FF000013EE700BF42004FEAE2014FEA71
:1004D00031014FEA02701FBF12F07F4393F07F4F4C
:1004E00081F06051704732F07F4208BF704793F04F
:1004F0007F4F04BF41F40021704730B54FF4607462
:1005000001F0004521F000411CE700BF50EA010264
:1005100008BF704730B54FF000050AE050EA01020D
:1005200008BF704730B511F0004502D5404261EB7D
:1005300041014FF4806404F132045FEA915C3FF4BE
:10054000D8AE4FF003025FEADC0C18BF03325FEA5B
:10055000DC0C18BF033202EBDC02C2F1200300FA0C
:1005600003FC20FA02F001FA03FE40EA0E0021FA31
:1005700002F11444BDE600BF70B54FF0FF0C4CF41F
:10058000E06C1CEA11541DBF1CEA135594EA0C0FD1
:1005900095EA0C0F00F0DEF82C4481EA030621EA0C
:1005A0004C5123EA4C5350EA013518BF52EA033547
:1005B00041F4801143F4801338D0A0FB02CE4FF0F9
:1005C0000005E1FB02E506F00042E0FB03E54FF029
:1005D0000006E1FB03569CF0000F18BF4EF0010E21
:1005E000A4F1FF04B6F5007F64F5407404D25FEA1D
:1005F0004E0E6D4146EB060642EAC62141EA5551D0
:100600004FEAC52040EA5E504FEACE2EB4F1FD0C11
:1006100088BFBCF5E06F1ED8BEF1004F08BF5FEA8F
:10062000500E50F1000041EB045170BD06F0004641
:1006300046EA010140EA020081EA0301B4EB5C04EE
:10064000C2BFD4EB0C0541EA045170BD41F48011E6
:100650004FF0000E013C00F3AB8014F1360FDEBF0B
:10066000002001F0004170BDC4F10004203C35DAE7
:100670000C341BDC04F11404C4F1200500FA05F36A
:1006800020FA04F001FA05F240EA020001F000420B
:1006900021F0004110EBD37021FA04F642EB060181
:1006A0005EEA430E08BF20EAD37070BDC4F10C04AB
:1006B000C4F1200500FA04F320FA05F001FA04F26F
:1006C00040EA020001F0004110EBD37041F100015B
:1006D0005EEA430E08BF20EAD37070BDC4F1200566
:1006E00000FA05F24EEA020E20FA04F301FA05F2CE
:1006F00043EA020321FA04F001F0004121FA04F276
:1007000020EA020000EBD3705EEA430E08BF20EA45
:10071000D37070BD94F0000F0FD101F0004640007F
:1007200041EB010111F4801F08BF013CF7D041EA01
:10073000060195F0000F18BF704703F00046520005
:1007400043EB030313F4801F08BF013DF7D043EAD6
:100750000603704794EA0C0F0CEA135518BF95EA8C
:100760000C0F0CD050EA410618BF52EA4306D1D113
:1007700081EA030101F000414FF0000070BD50EA32
:10078000410606BF1046194652EA430619D094EABC
:100790000C0F02D150EA013613D195EA0C0F05D1A6
:1007A00052EA03361CBF104619460AD181EA0301FA
:1007B00001F0004141F0FE4141F470014FF00000B2
:1007C00070BD41F0FE4141F4780170BD70B54FF04D
:1007D000FF0C4CF4E06C1CEA11541DBF1CEA1355CD
:1007E00094EA0C0F95EA0C0F00F0A7F8A4EB0504AF
:1007F00081EA030E52EA03354FEA013100F08880A6
:100800004FEA03334FF0805545EA131343EA12636E
:100810004FEA022245EA111545EA10654FEA002623
:100820000EF000419D4208BF964244F1FD0404F5DC
:10083000407402D25B084FEA3202B61A65EB030538
:100840005B084FEA32024FF480104FF4002CB6EBF5
:10085000020E75EB030E22BFB61A754640EA0C0075
:100860005B084FEA3202B6EB020E75EB030E22BFB5
:10087000B61A754640EA5C005B084FEA3202B6EBF6
:10088000020E75EB030E22BFB61A754640EA9C00B5
:100890005B084FEA3202B6EB020E75EB030E22BF85
:1008A000B61A754640EADC0055EA060E18D04FEA43
:1008B000051545EA16754FEA06164FEAC30343EAE3
:1008C00052734FEAC2025FEA1C1CC0D111F4801FB0
:1008D0000BD141EA00014FF000004FF0004CB6E7A9
:1008E00011F4801F04BF01430020B4F1FD0C88BF48
:1008F000BCF5E06F3FF6AFAEB5EB030C04BFB6EB53
:10090000020C5FEA500C50F1000041EB045170BD45
:100910000EF0004E4EEA113114EB5C04C2BFD4EB72
:100920000C0541EA045170BD41F480114FF0000EF6
:10093000013C90E645EA060E8DE60CEA135594EA72
:100940000C0F08BF95EA0C0F3FF43BAF94EA0C0F75
:100950000AD150EA01347FF434AF95EA0C0F7FF4EA
:1009600025AF104619462CE795EA0C0F06D152EA3E
:1009700003353FF4FDAE1046194622E750EA410622
:1009800018BF52EA43067FF4C5AE50EA41047FF433
:100990000DAF52EA43057FF4EBAE12E74FEA410296
:1009A000B2F1E04324BFB3F5001CDCF1FE5C0DD9CD
:1009B00001F0004C4FEAC0024CEA5070B2F1004F17
:1009C00040EB830008BF20F00100704711F0804F1A
:1009D00021D113F13872BCBF01F00040704741F4DF
:1009E00080114FEA5252C2F11802C2F1200C10FAE3
:1009F0000CF320FA02F018BF40F001004FEAC123C7
:100A00004FEAD32303FA0CFC40EA0C0023FA02F36A
:100A10004FEA4303CCE77FEA625307D150EA013340
:100A20001EBF4FF0FE4040F44000704701F0004010
:100A300040F0FE4040F40000704700BF53B94AB98F
:100A4000002908BF00281CBF4FF0FF314FF0FF30D6
:100A500000F074B9ADF1080C6DE904CE00F006F8B1
:100A6000DDF804E0DDE9022304B070472DE9F0472A
:100A7000089E04468846002B40F085808A42154631
:100A800048D9B2FA82F24AB1C2F1200701FA02F360
:100A900020FA07F7954047EA030894404FEA154EBD
:100AA000230CB8FBFEF71FFA85FC0EFB178843EA00
:100AB000084307FB0CF1994209D9EB1807F1FF3005
:100AC00080F0E380994240F2E080023F2B445B1AC1
:100AD000A4B2B3FBFEF00EFB103344EA034400FB68
:100AE0000CFCA44509D92C1900F1FF3380F0CB8010
:100AF000A44540F2C88002382C4440EA0740A4EBE9
:100B00000C0400271EB1D4400023C6E90043394637
:100B1000BDE8F087002A53D0B2FA82F2002A40F0F2
:100B2000B680491B4FEA154E1FFA85F80127B1FB25
:100B3000FEFC230C0EFB1C1143EA014308FB0CF1E5
:100B4000994207D9EB180CF1FF3002D2994200F21A
:100B5000EC808446591AA3B2B1FBFEF00EFB1014D0
:100B600043EA044408FB00F8A04507D92C1900F11A
:100B7000FF3302D2A04500F2DC801846A4EB080443
:100B800040EA0C40BEE78B4208D9002E78D00027FF
:100B9000C6E9000138463946BDE8F087B3FA83F765
:100BA0007FB98B4202D3824200F2BD80841A61EB8E
:100BB000030301209846002EA9D0C6E90048A6E705
:100BC000FFDEC7F12005BB4022FA05FC4CEA030C0E
:100BD00001FA07F420FA05F821FA05F34FEA1C4E52
:100BE00048EA0404B3FBFEF9210C0EFB19331FFA8B
:100BF0008CF841EA034309FB08FA9A4502FA07F226
:100C000000FA07F10BD91CEB030309F1FF3080F068
:100C100088809A4540F28580A9F102096344A3EBDC
:100C20000A03A4B2B3FBFEF00EFB103344EA034404
:100C300000FB08F8A04508D91CEB040400F1FF33C1
:100C40006BD2A04569D90238644440EA0940A4EB5C
:100C50000804A0FB02894C45C6464B4654D351D0EC
:100C6000002E69D0B1EB0E0264EB030404FA05F523
:100C700022FA07F3FC401D43C6E90054002746E76B
:100C80003746304643E7184637E707461FE7C2F1C5
:100C9000200320FA03F7954001FA02F021FA03F34A
:100CA0004FEA154E3843010CB3FBFEF71FFA85F8E7
:100CB0000EFB173341EA034107FB08F38B4204FAAA
:100CC00002F407D9691807F1FF3C28D28B4226D9D4
:100CD000023F2944CB1A81B2B3FBFEF00EFB103366
:100CE00041EA034100FB08F38B4207D9691800F180
:100CF000FF3C10D28B420ED902382944C91A40EA6F
:100D0000074714E74145ABD2B8EB020E69EB0C0282
:100D100001381346A4E76046F0E7184695E76746B2
:100D2000D8E781467BE7384645E7ACF1020C2B4417
:100D300010E702382C4421E73746E8E6704700BF49
:100D400090F800F06DE9024520F007016FF0000C0B
:100D500010F0070491F820F040F049804FF00004B3
:100D60006FF00700D1E9002391F840F000F108008E
:100D700082FA4CF2A4FA8CF283FA4CF3A2FA8CF3C6
:100D80004BBBD1E9022382FA4CF200F10800A4FA2D
:100D90008CF283FA4CF3A2FA8CF3E3B9D1E9042381
:100DA00082FA4CF200F10800A4FA8CF283FA4CF3B8
:100DB000A2FA8CF37BB9D1E9062301F1200182FA72
:100DC0004CF200F10800A4FA8CF283FA4CF3A2FA78
:100DD0008CF3002BC6D0002A04BF04301A4612BA86
:100DE000B2FA82F2FDE8024500EBD2007047D1E989
:100DF000002304F00305C4F100004FEAC50514F018
:100E0000040F91F840F00CFA05F562EA05021CBFE8
:100E100063EA050362464FF00004A9E70000000002
:100E200001F0FF01102A2BDB10F0070F08D010F89B
:100E3000013B013A8B422DD010F0070F42B3F6D19F
:100E4000F0B441EA012141EA014122F007047FF0B8
:100E500000070023F0E80256083C85EA010586EA0F
:100E6000010685FA47F5A3FA87F586FA47F6A5FA4B
:100E700087F68EB9EED1F0BC01F0FF0102F0070257
:100E800032B110F8013B013A83EA010313B1F8D102
:100E90000020704701387047002D06BF35460338E3
:100EA000073815F0010F07D1013015F4807F02BF1C
:100EB000013015F4C03F0130F0BC0138704700BF6D
:100EC000844641EA000313F003036DD1403A41D355
:100ED00051F8043B40F8043B51F8043B40F8043B14
:100EE00051F8043B40F8043B51F8043B40F8043B04
:100EF00051F8043B40F8043B51F8043B40F8043BF4
:100F000051F8043B40F8043B51F8043B40F8043BE3
:100F100051F8043B40F8043B51F8043B40F8043BD3
:100F200051F8043B40F8043B51F8043B40F8043BC3
:100F300051F8043B40F8043B51F8043B40F8043BB3
:100F400051F8043B40F8043B51F8043B40F8043BA3
:100F5000403ABDD2303211D351F8043B40F8043B43
:100F600051F8043B40F8043B51F8043B40F8043B83
:100F700051F8043B40F8043B103AEDD20C3205D353
:100F800051F8043B40F8043B043AF9D2043208D04B
:100F9000D2071CBF11F8013B00F8013B01D30B88BD
:100FA00003806046704700BF082A13D38B078DD09B
:100FB00010F003038AD0C3F10403D21ADB071CBF6D
:100FC00011F8013B00F8013B80D331F8023B20F8D7
:100FD000023B7BE7043AD9D3013A11F8013B00F810
:100FE000013BF9D20B7803704B7843708B78837098
:100FF000604670474FF0FF3C06E000BF4FF0010C29
:1010000002E000BF4FF0010C4DF804CD4FEA410C57
:101010007FEA6C5C4FEA430C18BF7FEA6C5C1BD024
:1010200001B050EA410C0CBF52EA430C91EA030FA5
:1010300002BF90EA020F0020704710F1000F91EA02
:10104000030F58BF994208BF90422CBFD8176FEAD0
:10105000E37040F0010070474FEA410C7FEA6C5C9E
:1010600002D150EA013C07D14FEA430C7FEA6C5CA5
:10107000D6D152EA033CD3D05DF8040B704700BFD1
:101080008446104662468C461946634600E000BF1F
:1010900001B5FFF7B7FF002848BF10F1000F01BDF1
:1010A0004DF808EDFFF7F4FF0CBF012000205DF8BC
:1010B00008FB00BF4DF808EDFFF7EAFF34BF012041
:1010C00000205DF808FB00BF4DF808EDFFF7E0FFDA
:1010D00094BF012000205DF808FB00BF4DF808ED2B
:1010E000FFF7CEFF94BF012000205DF808FB00BF92
:1010F0004DF808EDFFF7C4FF34BF012000205DF874
:1011000008FB00BF4FEA410C7FEA6C5C02D150EA59
:10111000013C0AD14FEA430C7FEA6C5C02D152EAEF
:10112000033C02D14FF0000070474FF001007047C0
:101130004FEA410212F5001215D211D56FF47873FF
:10114000B3EB625212D94FEAC12343F0004343EAA2
:10115000505311F0004F23FA02F018BF404270477D
:101160004FF00000704750EA013005D111F0004007
:1011700008BF6FF0004070474FF00000704700BF9D
:1011800000B587B0002303930493059301910123D5
:10119000029301A901F022F907B05DF804FB00B544
:1011A00087B000230293039304930593019101A94F
:1011B00001F014F907B05DF804FB000010B50B4C0A
:1011C00001212046FFF7DCFF00220121204601F02B
:1011D000DEF94FF4966000F0F7F801212046FFF7A2
:1011E000DEFF1E2000F0F0F810BD00BF000002403E
:1011F00010B501210C4801F0C3F940B100240121D0
:10120000094801F0BDF90028F9D1204610BD502051
:1012100000F0DAF80121044801F0B2F908B1012424
:10122000EDE7FF24EBE700BF0000024038B50025E2
:101230002C460DE0C4F10702012393402B43DDB29D
:101240000121104801F09CF90028F9D10134E4B2E1
:10125000072C15D801210B4801F092F90028F9D08C
:10126000232000F0B1F80121064801F089F9002897
:10127000E0D1C4F107020123934025EA0305DFE72B
:10128000284638BD000002402DE9F0410546FFF731
:1012900095FFFFF7ADFF214B1870FFF7C7FFDFF891
:1012A000948088F80000FFF7C1FF1D4F3870FFF7EA
:1012B000BDFF1C4E3070FFF7B9FF1B4C2070FFF7CD
:1012C000B5FF80B2194B188098F800303A78134473
:1012D000317851FA83F3227852FA83F3DBB29842E1
:1012E00001D0BDE8F08142EA0120FFF7DBF80022DF
:1012F0000F4BFFF76BFAFFF751FB286098F80000DF
:101300003B7843EA0020FFF7CDF80022084BFFF7B7
:101310005DFAFFF743FB6860E3E700BFDC090020EC
:10132000DE090020E2090020E3090020E009002096
:1013300000002440DD09002000B587B001F0EEFF79
:101340001D4BA3FB0030800C1C4A10601C481D4B39
:101350000360002302930393049305930093019386
:101360001268013A426083604FF6FF72C260036107
:101370008023836102F076F8A8B94FF4805302937A
:1013800002A90F4802F093F880B90023009301935B
:1013900069460B4802F0FAF858B9094802F001F81A
:1013A00007B05DF804FB00F0ABFAE6E700F0A8FA3E
:1013B000EBE700F0A5FAF0E783DE1B43240A0020E8
:1013C000E40900200004004082B0ADF80600074B9D
:1013D0001B6800225A62054B1B685A6ABDF806302A
:1013E0009BB29A42F7D302B0704700BFE4090020D5
:1013F00000B585B00301DBB200F0F00040F00C0254
:101400008DF80C2040F008008DF80D0043F00C0220
:101410008DF80E2043F008038DF80F30C823009399
:10142000042303AA044909780448006801F0E4FA97
:1014300005B05DF804FB00BF280A00202C0A00203C
:1014400000B585B00301DBB200F0F00040F00D0202
:101450008DF80C2040F009008DF80D0043F00D02CE
:101460008DF80E2043F009038DF80F30C823009348
:10147000042303AA044909780448006801F0BCFA6F
:1014800005B05DF804FB00BF280A00202C0A0020EC
:1014900010B50446322000F059FC2B4B1C604FF471
:1014A000FA7305224E21204601F05EFBE8BB274B74
:1014B0004E221A702D2000F049FC3020FFF798FFD3
:1014C000052000F043FC3020FFF792FF012000F0E0
:1014D0003DFC3020FFF78CFF082000F037FC202077
:1014E000FFF786FF082000F031FC2820FFF780FF7F
:1014F000012000F02BFC0820FFF77AFF012000F00C
:1015000025FC0120FFF774FF032000F01FFC0620DC
:10151000FFF76EFF012000F019FC0C20FFF768FFB9
:10152000032000F013FC012010BD4FF4FA730522D4
:101530007E210548006801F017FB18B9034B7E2295
:101540001A70B7E70020EFE72C0A0020280A0020D5
:1015500008B501F00F0120B941F08000FFF748FF06
:1015600008BD41F0C000FFF743FFF9E708B50120CF
:10157000FFF73EFF032000F0E9FB08BD0FB410B5F4
:1015800086B008AA52F8041B009201A802F0C8F81D
:10159000002401A8FFF7D4FB84420AD20F2C08D8FC
:1015A00006AB234413F8140CFFF74AFF0134E4B2EE
:1015B000EFE706B0BDE8104004B0704770B58AB0E0
:1015C0000024059406940794089409940194214BEF
:1015D0001A6B42F080021A631A6B02F080020192C9
:1015E000019A02941A6B42F001021A631A6B02F01C
:1015F00001020292029A03941A6B42F008021A63E3
:101600001A6B02F008020392039A04941A6B42F0D8
:1016100002021A631B6B03F002030493049B0E4D3A
:1016200022464FF48051284600F0B1FF012605966E
:101630000694079405A9094800F0D0FE4FF48053A2
:10164000059306960794089405A9284600F0C6FE5F
:101650000AB070BD00380240000C02400000024099
:1016600008B50948094B0360094B436000238360B8
:10167000C3604FF48042026143618361C3610362CE
:1016800001F0DEF808BD00BFA80A002000540040A9
:10169000A086010030B587B000240294039404941E
:1016A0000594009401940E4D0E4B2B606C60AC6061
:1016B0004FF6FF73EB602C61AC61284601F0D2FE5F
:1016C0004FF48053029302A9284601F0F0FE0094E3
:1016D00001946946284601F059FF07B030BD00BFAC
:1016E000FC0A00200004004030B585B000230093C0
:1016F0000193029303930F4C0F4A22606360A3602F
:101700002361237684F82030E3620C4AA262E3600E
:101710000125E56184F830306561204600F0C4FBA6
:1017200000950195072302936946204600F018FDB5
:1017300005B030BD600A0020002001400100000F0C
:1017400010B5044600210846FFF702FF2046FEF7C9
:10175000BBFE02460B460248FFF710FF10BD00BF5C
:101760007C86000810B582B0044600210120FFF7F6
:10177000EFFE2046FEF7A8FE2523009302460B4607
:101780000248FFF7FBFE02B010BD00BF68860008EC
:1017900010B5044600210120FFF7DAFE2146024879
:1017A000FFF7ECFE10BD00BF5886000830B595B0BD
:1017B0003022002108A801F04FFF00240394049474
:1017C0000594069407940194194B1A6C42F08052C8
:1017D0001A641B6C03F080530193019B0294154B18
:1017E0001A6842F440421A601B6803F440430293B3
:1017F000029B0225089501230B9310230C930E9551
:101800000F9408231093642211921295139308A841
:1018100001F074FA0F230393049505944FF4805359
:1018200006930793032103A801F0C8FC15B030BD4F
:10183000003802400070004008B500F05BFAFFF786
:10184000B5FFFFF7BBFEFFF70BFFFFF723FFFFF727
:101850004BFFFFF771FDC82000F078FA224C20A35F
:10186000D3E900230A21204600F0F2F81F49204660
:1018700000F0D6F81E48FFF70BFE40BBFFF776FEE0
:101880001C48FFF77BFE4FF47A7000F05FFAFFF719
:101890006DFEFFF76BFE184C2046FFF7F5FC206845
:1018A000FFF74EFF6068FFF75DFF4FF4FA6000F04E
:1018B0004DFA2068FFF744FF0C490B4800F038F858
:1018C000FFF766FF4FF4FA6000F040FAE1E701220B
:1018D0004FF48051094800F05AFECFE7AFF3008083
:1018E000AE47E17A14AEEF3F380A0020600A0020CC
:1018F000A80A002090860008300A0020000C024050
:101900007047000010B5044600F07EFB024B1880C3
:10191000204600F0F5FA10BD3C0B002008B510463B
:1019200000F0EEFA014B188808BD00BF3C0B002008
:101930002DE9F04705460F460A4602213248FFF7D7
:10194000EDFF0026B246AC69B4420ADD3A460221F8
:101950002D48FFF7E3FF8244142000F0F7F9013629
:10196000F1E7D5E9046732463B4600202749FEF7F8
:101970004BFC804689465046FEF794FD20A3D3E9F0
:101980000023FEF7F9FD02460B4640464946FEF7A6
:10199000F3FD804689462046FEF784FD00221C4B5D
:1019A000FEF7EAFD02460B4640464946FEF70EFFAB
:1019B00080468946D5E9082330463946FEF7DCFDE6
:1019C00002460B4640464946FEF720FC02460B46BF
:1019D000C5E90823D5E90001FEF716FC00220D4BEE
:1019E000FEF7F4FE02460B4600200B4905F04CFEC4
:1019F000C5E90201094B1888BDE8F087AFF3008004
:101A0000000000000088B340000002400000F03FEA
:101A10000000904000C08240000079403C0B002054
:101A200010B50446FFF784FF0022064BD4E90801F5
:101A3000FEF7ECFBC4E900010022034BC4E90223DA
:101A400010BD00BF00C082400000794000000000CF
:101A50008161C0E9042306A3D3E90023C0E9002380
:101A60000022054BC0E90223704700BFAFF300809E
:101A700000000000007097400000794000B583B07E
:101A8000002100910C4B5A6C42F480425A645A6C0B
:101A900002F480420092009A01911A6C42F0805246
:101AA0001A641B6C03F080530193019B072000F024
:101AB0002BFC03B05DF804FB0038024010B588B081
:101AC000002303930493059306930793026803F19D
:101AD000804303F590339A4201D008B010BD002432
:101AE000019403F58C335A6C42F480725A645A6C38
:101AF00002F480720192019A02941A6B42F0010280
:101B00001A631B6B03F001030293029B02230393EE
:101B10000323049303A9064800F060FC22462146F3
:101B2000122000F003FC122000F034FCD5E700BFC7
:101B30000000024030B589B000230393049305935D
:101B4000069307930268144B9A4201D009B030BD46
:101B500000250195114C236B43F002032363236B93
:101B600003F002030193019B4FF4107303931223BC
:101B70000493012305930423079303A9084800F065
:101B80002DFC0295236C43F400132364236C03F4AF
:101B900000130293029BD9E7005400400038024032
:101BA000000402400268094B9A4200D0704782B09C
:101BB00000230193064B1A6C42F002021A641B6C5C
:101BC00003F002030193019B02B070470004004040
:101BD000003802407047FEE7FEE7FEE7FEE7704789
:101BE0007047704708B500F09FF808BD08B5024877
:101BF00000F00FFA08BD00BF600A002010B50346D0
:101C00000C4A0D490D48006840B10C480068034477
:101C1000521A934206D8094A136010BD0748084C6F
:101C20000460F2E701F0EEFC0C2303604FF0FF309C
:101C3000F3E700BF0000022000040000400B00207A
:101C4000A80B0020024B4FF000629A60704700BF63
:101C500000ED00E0DFF834D0002103E00C4B5B58CE
:101C6000435004310B480C4B42189A42F6D30B4AAE
:101C700002E0002342F8043B094B9A42F9D3FFF7F4
:101C8000E1FF01F0C5FCFFF7D7FD7047000002201F
:101C90006489000800000020BC090020C009002061
:101CA000A40B0020FEE7000010B504460E4B187888
:101CB0004FF47A73B3FBF0F30C4A1068B0FBF3F007
:101CC00000F076FB68B90F2C01D901200AE0002250
:101CD00021464FF0FF3000F029FB054B1C6000202F
:101CE00000E0012010BD00BF040000200000002023
:101CF0000800002008B50B4B1A6842F400721A6005
:101D00001A6842F480621A601A6842F480721A609B
:101D1000032000F0F9FA0020FFF7C6FFFFF7AEFE40
:101D2000002008BD003C0240034A1168034B1B78A9
:101D30000B441360704700BF440B002004000020D8
:101D4000014B1868704700BF440B002038B50446AB
:101D5000FFF7F6FF0546B4F1FF3F02D0044B1B78B6
:101D60001C44FFF7EDFF401BA042FAD338BD00BF73
:101D7000040000204A4B5A6822F440325A605A68E4
:101D800041680A435A600268536823F480735360C1
:101D900002685368016943EA01235360026853688B
:101DA00023F0407353600268536881680B435360AB
:101DB0000268936823F40063936002689368C168C3
:101DC0000B439360826A374B9A4257D002689368FC
:101DD00023F07063936002689368816A0B43936099
:101DE0000268936823F04053936002689368C16A65
:101DF0000B4393600268936823F0020393600268C8
:101E00009368017E43EA4103936090F82030002BF1
:101E10003FD00268536843F400635360026853681C
:101E200023F46043536001684B68426A013A43EA15
:101E300042334B600268D36A23F47003D3620168B3
:101E4000CB6AC269013A43EA0253CB6202689368E3
:101E500023F4007393600268936890F8301043EAAB
:101E6000412393600268936823F48063936002685F
:101E70009368416943EA81239360704702689368DD
:101E800023F0706393600268936823F0405393607B
:101E9000B0E70268536823F400635360CAE700BFE9
:101EA000002301400100000F38B310B50446036C55
:101EB00043B1236C13F0100F0BD00120002384F8E2
:101EC0003C3010BDFFF7FAFD0023636484F83C301A
:101ED000EFE7236C23F4885323F0020343F002035B
:101EE00023642046FFF746FF00206064236C23F044
:101EF000030343F001032364E0E70120704700007F
:101F000082B00023019390F83C30012B6AD001236A
:101F100080F83C3003689A6812F0010F12D19A6879
:101F200042F001029A60344B1B68344AA2FB03233F
:101F30009B0C03EB43030193019B1BB1019B013BF2
:101F40000193F9E70268936813F0010F4CD0036C1A
:101F500023F4E06323F0010343F4807303645368C4
:101F600013F4806F05D0036C23F4405343F4805383
:101F70000364036C13F4805F21D0436C23F00603E9
:101F80004364002380F83C3003686FF022021A603B
:101F90000268536843F0806343F020035360184B9A
:101FA0005B6813F01F0F0DD103689A6812F0405F51
:101FB0001DD19A6842F080429A60002015E000230B
:101FC0004364DEE703680F4A934201D000200CE02F
:101FD0009A6812F0405F0CD19A6842F080429A6091
:101FE000002002E0022000E0002002B07047002044
:101FF000FBE70020F9E700BF0000002083DE1B4361
:1020000000230140002001400368D86C70477047EE
:10201000704738B5044602681168536811F0020F22
:102020002FD003F0200363B3036C13F0100F03D120
:10203000036C43F400730364936813F0405F19D199
:10204000237EBBB9D36A13F4700F03D0936813F4E3
:10205000806F0FD1536823F020035360236C23F467
:1020600080732364236C13F4805F03D1236C43F0EB
:10207000010323642046FFF745FC23686FF012023A
:102080001A60236819685A6802F0800211F0040F80
:1020900036D0002A34D0226C12F0100F03D1226CFB
:1020A00042F4005222649A6812F4401F21D19A6BC4
:1020B00012F4401F03D09A6812F4806F19D15A6845
:1020C00012F4806F15D19A6812F0405F11D1227E10
:1020D0007AB95A6822F080025A60236C23F4805344
:1020E0002364236C13F4807F03D1236C43F001033A
:1020F0002364204600F006F923686FF00C021A6092
:1021000022681168536803F0400311F0010F04D0F6
:102110001BB1136813F0010F09D1226811685368CD
:1021200003F0806311F0200F00D063B938BD236C39
:1021300043F4803323642046FFF769FF23686FF080
:1021400001021A60E9E7636C43F0020363646FF015
:10215000200515602046FFF75BFF23681D60E5E75B
:1021600030B482B00023019390F83C30012B00F092
:10217000BC80012380F83C300B68092B3ED90568F0
:10218000EA689BB203EB43031E3B072404FA03F304
:1021900022EA0303EB600568EA688C680B8803EBAE
:1021A00043031E3B04FA03F31343EB604B68062B17
:1021B0003AD805686A6B03EB8303053B1F2404FAD6
:1021C00003F322EA03036B6305686A6B4B6803EB56
:1021D0008303053B0C8804FA03F313436B63026823
:1021E000434B9A4250D00268414B9A4259D0002347
:1021F00080F83C30184602B030BC704705682A6948
:102200009BB203EB4303072404FA03F322EA03031C
:102210002B6105682A698C680B8803EB430304FA79
:1022200003F313432B61C1E70C2B16D805682A6B07
:1022300003EB8303233B1F2404FA03F322EA030383
:102240002B6305682A6B4B6803EB8303233B0C88E5
:1022500004FA03F313432B63C1E70568EA6A03EB4F
:102260008303413B1F2404FA03F322EA0303EB62D6
:102270000568EA6A4B6803EB8303413B0C8804FA68
:1022800003F31343EB62AAE70B68122BABD1194B94
:102290005A6822F400025A605A6842F480025A6076
:1022A000A1E70B68144A934201D0112B9FD1114B27
:1022B0005A6822F480025A605A6842F400025A6056
:1022C0000A680D4B9A4292D10C4B1B680C4AA2FB38
:1022D00003239B0C03EB83035A000192019B002B09
:1022E00085D0019B013B0193F8E7022083E700BF03
:1022F00000200140002301401200001000000020D7
:1023000083DE1B4370470000074AD36823F4E06371
:102310001B041B0C000200F4E060184340F0BF6097
:1023200040F40030D060704700ED00E030B4174B4F
:10233000DB68C3F30223C3F10704042C28BF042481
:102340001D1D062D01D9033B00E000234FF0FF3592
:1023500005FA04F421EA0401994005FA03F322EA9C
:1023600003031943002809DB0901C9B200F16040E9
:1023700000F5614080F8001330BC704700F00F009A
:102380000901C9B2024B1954F6E700BF00ED00E0A5
:1023900014ED00E0002807DB00F01F0240090123D4
:1023A0009340024A42F82030704700BF00E100E04D
:1023B0000138B0F1807F0AD2064B5860064AF021FE
:1023C00082F823100020986007221A6070470120CD
:1023D000704700BF10E000E000ED00E000230F2B8D
:1023E00000F2C480F0B583B039E0042200E000229E
:1023F000B2403A4302355E4E46F825205D4A1568E4
:10240000E24302EA05064F6817F4803F01D044EA30
:102410000506584D2E606D6802EA05064F6817F4F0
:10242000003F01D044EA0506524D6E60AD6802EAF5
:1024300005064F6817F4801F01D044EA05064D4D8C
:10244000AE60ED682A404E6816F4001F01D044EAE1
:102450000502484CE26001330F2B00F28580012217
:102460009A400C681440A242F5D14D686E1E012EB0
:1024700003D9112D01D0122D12D186685F000325DA
:10248000BD4026EA0506CD68BD40354385604668F7
:1024900026EA02064D68C5F300129A4032434260B4
:1024A000C5685F000322BA40D24315408E68BE4023
:1024B0002E43C6604D68022D01D0122D13D1DE08C7
:1024C000083650F826E003F007054FEA850C0F2583
:1024D00005FA0CF52EEA050E0D6905FA0CF545EA2C
:1024E0000E0540F8265005682A404D6805F00305A2
:1024F000BD402A4302604A6812F0805FABD00022E0
:1025000001921D4A556C45F480455564526C02F4A5
:1025100080420192019A9D08AE1C154A52F826701D
:1025200003F0030296000F22B24027EA0207134A83
:1025300090423FF45CAF02F5806290420ED002F50B
:10254000806290420CD002F5806290420AD002F57F
:10255000806290423FF449AF072249E7012247E7F2
:10256000022245E7032243E703B0F0BD704700BFF6
:1025700000380140003C01400038024000000240A9
:102580000369194201D001207047002070470AB149
:102590008161704709048161704703685A6912F4C8
:1025A000806F01D1002070476FF480625A61002370
:1025B0000363202280F83D2080F83E30026C42F018
:1025C0000402026480F83C3001207047F8B50646EA
:1025D0000C4617461D4622E0FFF7B2FB069BC01AC9
:1025E000A84200D8DDB900233363202286F83D20BD
:1025F00086F83E30326C42F02002326486F83C307D
:1026000001201AE033689B6924EA03039BB2B3FA02
:1026100083F35B099F420FD1B5F1FF3FDCD1C4F3D7
:102620000743012BEED133685B6924EA03039BB2B5
:10263000B3FA83F35B09EDE70020F8BDF8B5044673
:102640000D4616461F463CE01A6842F400721A60B6
:1026500023686FF480625A6100232363202284F888
:102660003D2084F83E30226C42F00402226484F85B
:102670003C30012033E0FFF763FBC01BB04200D8C1
:10268000FEB900232363202284F83D2084F83E30E5
:10269000226C42F02002226484F83C3001201EE0CB
:1026A00023689B6925EA03039BB2003318BF01230B
:1026B000A3B123685A6912F4806FC5D1B6F1FF3F08
:1026C000D9D1C5F30743012BEAD123685B6925EA19
:1026D00003039BB2003318BF0123E9E70020F8BDD4
:1026E000F0B583B004460D4616461F46C36A082B54
:1026F0000DD0012B0BD013F5803F08D0036B122BAC
:102700000AD10268136843F48073136004E02268FE
:10271000136843F4807313600097334600224FF030
:1027200001112046FFF752FF90B92369B3F5804F9E
:1027300018D1236805F0FE051D613B463246144959
:102740002046FFF77BFF034600BB184603B0F0BDF1
:1027500023681B6813F4807F02D04FF40073236456
:102760000323F2E7EB11226803F0060343F0F003C2
:1027700013613B46324607492046FFF75FFF18B911
:102780002368EDB21D61D8E70123DEE70123DCE712
:10279000020001000800010070B504460D4616460F
:1027A00023685B6913F0800F1CD12046FFF7F5FE0C
:1027B000D0B9B5F1FF3FF3D0FFF7C2FA801BA842B2
:1027C00001D8002DECD100232363202284F83D2082
:1027D00084F83E30226C42F02002226484F83C30BF
:1027E000012000E0002070BD0120FCE770B5044628
:1027F0000D46164623685B6913F0040F1CD1204672
:10280000FFF7CBFED0B9B5F1FF3FF3D0FFF798FA51
:10281000801BA84201D8002DECD100232363202285
:1028200084F83D2084F83E30226C42F0200222647D
:1028300084F83C30012000E0002070BD0120FCE75E
:10284000002800F0CB80F8B5044690F83D30002B0E
:1028500076D0242384F83D302268136823F00103E6
:1028600013602268136843F40043136022681368FE
:1028700023F40043136000F057FD6268594B9A42FD
:1028800063D8594B98428CBF00230123002B40F0A2
:10289000A780564BA3FB00239B0C21684A6822F0BB
:1028A0003F021A434A6025682A6A22F03F0266689E
:1028B0004C498E424FD8013313432B622568E96996
:1028C00021F44F4121F0FF016368464A93424CD8FE
:1028D00001385B00B0FBF3F0013040F6FC731842A6
:1028E00078D0C0F30B030B43EB6121680B6823F036
:1028F000C003E269206A024313430B6021688B68BE
:1029000023F4034323F0FF032269E06802431343E7
:102910008B602168CB6823F0FF036269A0690243E2
:102920001343CB602268136843F001031360002057
:102930002064202384F83D30206384F83E00F8BDF5
:1029400080F83C30FFF7F6F883E7294B98428CBFBC
:10295000002301239AE74FF4967101FB03F3254905
:10296000A1FB03139B090133A6E7A268BAB9461E6F
:1029700003EB4307B6FBF7F60136C6F30B06B6FAD0
:1029800086F6760946BBC2B9421E03EB4303B2FB8F
:10299000F3F20132C2F30B0242F40043A3E7461EF6
:1029A00003EB830707EB8707B6FBF7F60136C6F3A1
:1029B0000B06B6FA86F67609E4E7421E03EB8303BC
:1029C00003EB8303B2FBF3F20132C2F30B0242F4D6
:1029D000404388E7042386E7012384E7012070470A
:1029E0000120ACE7A08601007F841E0083DE1B432C
:1029F000FF083D00D34D62102DE9F04184B004463C
:102A00000E4690461F46FFF79BF994F83D30DBB227
:102A1000202B04D00226304604B0BDE8F0810546E4
:102A20000090192301224E492046FFF7CFFD0028D0
:102A300040F08F8094F83C30012B00F08C80012313
:102A400084F83C3023681A6812F0010F03D11A6829
:102A500042F001021A602268136823F400631360D5
:102A6000212384F83D30102384F83E300023236472
:102A7000C4F824806785638D23853A4BE3622B4637
:102A80000A9A31462046FFF72BFE0646002864D1FD
:102A90000023039323685A6903929B690393039B62
:102AA00011E0236C042B01D00126B4E722681368DF
:102AB00043F400731360F7E72A460A992046FFF7AC
:102AC00095FE00282CD1238D002B34D02A460A995C
:102AD0002046FFF761FE0028E3D1626A236812787E
:102AE0001A61616A4B1C6362638D013B9BB2638513
:102AF000238D013B9BB223852268506910F0040F9F
:102B0000DAD0002BD8D04B781361636A013363624B
:102B1000638D013B9BB26385238D013B2385CBE70E
:102B2000236C042B01D0012675E72268136843F457
:102B300000731360F7E72268136843F400731360AF
:102B4000202384F83D30002384F83E3084F83C3064
:102B500061E702265FE702265DE701265BE700BF2B
:102B6000020010000000FFFF2DE9F04385B004468D
:102B7000884691461D46FFF7E3F894F83D30DBB2F6
:102B8000202B04D00223184605B0BDE8F08306468A
:102B900000901923012258492046FFF717FD00280D
:102BA00040F0A18094F83C30012B00F09E8001237E
:102BB00084F83C3023681A6812F0010F03D11A68B8
:102BC00042F001021A602268136823F40063136064
:102BD000242384F83D3000232364A3F58033E3628B
:102BE00001273EE023681B6813F4807F02D04FF476
:102BF000007323640323C6E7A02384F83D302368D1
:102C00005A69C2F340025969C1F3802194F83D30FA
:102C1000DBB2A02B09D042B939B9FFF791F8801B7C
:102C2000A842E9D8002DEAD1E6E7202384F83D3018
:102C300023685A6912F0020F31D11A6842F4007207
:102C40001A6023686FF480625A610096192301228A
:102C500029492046FFF7BAFC00284AD101374F45E1
:102C600039D22268136843F48073136000962B46B0
:102C700000224FF001112046FFF7A8FC0028B1D137
:102C8000236808F0FE021A61FFF75AF80646236827
:102C90005A69C2F340025969C1F38021B6E71A6844
:102CA00042F400721A600023039323685A69039266
:102CB0009B690393039B0096192301220E4920462A
:102CC000FFF784FC034690B9202284F83D200022BF
:102CD00084F83C2057E7202384F83D30002384F813
:102CE0003C3001234FE702234DE702234BE701234A
:102CF00049E7012347E700BF02001000002800F069
:102D0000D98170B582B00446036813F0010F3BD03F
:102D1000A64B9B6803F00C03042B2CD0A34B9B68A1
:102D200003F00C03082B21D06368B3F5803F4FD02C
:102D3000B3F5A02F52D09D4B1A6822F480321A604E
:102D40001A6822F480221A606368002B50D0FEF7C4
:102D5000F7FF0546954B1B6813F4003F14D1FEF7AF
:102D6000EFFF401B6428F5D90320AAE18F4B5B6875
:102D700013F4800FD8D08D4B1B6813F4003F03D0A1
:102D80006368002B00F09881236813F0020F54D081
:102D9000864B9B6813F00C0F3ED0844B9B6803F06E
:102DA0000C03082B33D0E368002B67D0804B012243
:102DB0001A60FEF7C5FF05467C4B1B6813F0020F37
:102DC00053D1FEF7BDFF401B0228F5D9032078E15F
:102DD000764A136843F480331360B5E7734B1A687F
:102DE00042F480221A601A6842F480321A60ABE71B
:102DF000FEF7A6FF05466D4B1B6813F4003FC3D0DA
:102E0000FEF79EFF401B6428F5D9032059E1674B6C
:102E10005B6813F4800FC6D1644B1B6813F0020F7C
:102E200003D0E368012B40F04981604A136823F026
:102E3000F803216943EAC1031360236813F0080F04
:102E400040D0636963B35B4B01221A60FEF778FFE1
:102E50000546564B5B6F13F0020F33D1FEF770FF40
:102E6000401B0228F5D903202BE1504A136823F0B8
:102E7000F803216943EAC1031360DEE74C4B0022EB
:102E80001A60FEF75DFF0546484B1B6813F0020F02
:102E9000D3D0FEF755FF401B0228F5D9032010E1DF
:102EA000444B00221A60FEF74BFF05463F4B5B6F19
:102EB00013F0020F06D0FEF743FF401B0228F5D99E
:102EC0000320FEE0236813F0040F78D0374B1B6C0F
:102ED00013F0805F33D100230193344B1A6C42F01E
:102EE00080521A641B6C03F080530193019B0125EF
:102EF000314B1B6813F4807F23D0A368012B34D09F
:102F0000052B38D0294B1A6F22F001021A671A6F6D
:102F100022F004021A67A368002B36D0FEF710FFD8
:102F20000646224B1B6F13F0020F47D1FEF708FF36
:102F3000801B41F288339842F3D90320C1E0002579
:102F4000D6E71D4A136843F480731360FEF7F8FE5A
:102F50000646194B1B6813F4807FCED1FEF7F0FEB6
:102F6000801B0228F5D90320ABE0104A136F43F011
:102F700001031367CFE70D4B1A6F42F004021A6783
:102F80001A6F42F001021A67C5E7FEF7D9FE06463E
:102F9000064B1B6F13F0020F10D0FEF7D1FE801B03
:102FA00041F288339842F3D903208AE00038024086
:102FB00000004742800E474200700040E5B9A36917
:102FC000002B7DD0464A926802F00C02082A51D0AC
:102FD000022B17D0434B00221A60FEF7B1FE0446C5
:102FE0003F4B1B6813F0007F42D0FEF7A9FE001B89
:102FF0000228F5D9032064E0394A136C23F080538A
:103000001364DCE7374B00221A60FEF799FE054691
:10301000334B1B6813F0007F06D0FEF791FE401B78
:103020000228F5D903204CE0E369226A1343626A5F
:1030300043EA8213A26A5208013A43EA0243E26A6F
:1030400043EA0263264A5360264B01221A60FEF7C8
:1030500077FE0446224B1B6813F0007F06D1FEF773
:103060006FFE001B0228F5D903202AE0002028E08B
:10307000002026E0012B26D0194B5B6803F4800169
:10308000E269914221D103F03F02216A8A421ED1B6
:10309000616A47F6C0721A408A421AD103F440327C
:1030A000A16A8A4217D103F07063E26A934214D195
:1030B000002006E001207047012002E0012000E02E
:1030C000002002B070BD0120FBE70120F9E70120DC
:1030D000F7E70120F5E70120F3E70120F1E700BF62
:1030E0000038024060004742314B9B6803F00C03FC
:1030F000042B58D0082B58D170B52D4B5A6802F0CC
:103100003F025B6813F4800F2AD0294B5868C0F344
:1031100088100546002643011B1A66EB0604A10130
:1031200041EA93619801C01A61EB0401CB0043EAC4
:103130005073C4001946601946EB01014B0243EA83
:10314000D0534402204619463346FDF777FC184B0E
:103150005B68C3F3014301335B00B0FBF3F070BD68
:10316000134B5868C0F388100546002643011B1A0C
:1031700066EB0604A10141EA93619801C01A61EB74
:103180000401CB0043EA5073C4001946601946EBB2
:1031900001018B0243EA90538402204619463346CC
:1031A000FDF74CFCD3E7034870470348704700BF66
:1031B0000038024000127A000024F400002800F0D9
:1031C0009B8070B50446504B1B6803F00F038B4285
:1031D00008D2CBB24C4A1370136803F00F038B4232
:1031E00040F08C80236813F0020F17D013F0040F07
:1031F00004D0464A936843F4E0539360236813F085
:10320000080F04D0414A936843F4604393603F4AF7
:10321000936823F0F003A068034393600D4623688E
:1032200013F0010F32D06368012B21D09A1E012ABE
:1032300025D9364A126812F0020F61D033498A68E4
:1032400022F0030213438B60FEF77AFD06462F4BF4
:103250009B6803F00C036268B3EB820F16D0FEF795
:103260006FFD801B41F288339842F0D9032042E081
:10327000264A126812F4003FE0D101203BE0234AC5
:10328000126812F0007FD9D1012034E01E4B1B6878
:1032900003F00F03AB4207D9EAB21B4B1A701B684D
:1032A00003F00F03AB422DD1236813F0040F06D0B7
:1032B000164A936823F4E053E1680B439360236854
:1032C00013F0080F07D0114A936823F46043216973
:1032D00043EAC1039360FFF707FF0C4B9B68C3F3FE
:1032E00003130B4AD35CD8400A4B18600A4B18688A
:1032F000FEF7DAFC002070BD012070470120FAE7DC
:103300000120F8E70120F6E7003C024000380240C7
:10331000A08600080000002008000020014B18686B
:10332000704700BF0000002008B5FFF7F7FF044B0F
:103330009B68C3F38223034AD35CD84008BD00BF17
:1033400000380240B086000810B4036A046A24F012
:1033500001040462846924F0F00444EA021223F0B8
:103360000A030B438261036210BC704710B4036A06
:1033700023F0100303628469036A24F4704444EA6E
:10338000023223F0A00343EA01138261036210BCFE
:103390007047836823F07003194341F0070181608F
:1033A0007047022380F83D300268936803F00703FA
:1033B000062B03D0136843F001031360012380F848
:1033C0003D300020704700000368254A90420ED02F
:1033D000B0F1804F0BD0A2F57C42904207D002F5AD
:1033E0008062904203D002F58062904203D123F0C4
:1033F00070034A6813431A4A90421AD0B0F1804FC2
:1034000017D0A2F57C42904213D002F58062904220
:103410000FD002F5806290420BD002F59A329042B2
:1034200007D002F58062904203D002F5806290429C
:1034300003D123F44073CA68134323F080034A691D
:10344000134303608B68C3620B688362044B98422A
:1034500002D00123436170470B690363F9E700BFA2
:1034600000000140B0B110B5044690F83D3063B1A2
:10347000022384F83D30214651F8040BFFF7A4FFE6
:10348000012384F83D30002010BD80F83C30FEF769
:1034900089FBEDE70120704710B4846824F47F4471
:1034A00042EA03230B432343836010BC704790F828
:1034B0003C30012B67D010B50446012380F83C3026
:1034C000022380F83D300268936823F47F4323F0A1
:1034D000770393600B68402B4BD013D9602B3ED001
:1034E00025D9702B2FD0B3F5005F19D1CB684A686E
:1034F00089680068FFF7D0FF2268936843F480432F
:1035000093600DE0102B04D008D9202B01D0302B74
:1035100006D119462068FFF73CFF01E0002BF8D0E8
:10352000012384F83D30002084F83C0010BD502B6E
:10353000F6D1CA6849680068FFF706FF5021206885
:10354000FFF727FFECE7CB684A6889680068FFF758
:10355000A3FF2268936843F077039360E0E7CA68AB
:1035600049680068FFF702FF60212068FFF711FF3C
:10357000D6E7CA6849680068FFF7E6FE4021206880
:10358000FFF707FFCCE702207047000090F83C30BF
:10359000012B33D030B4012380F83C30022380F873
:1035A0003D3003685C689D6824F070040A6822431B
:1035B0005A600368124A934212D0B3F1804F0FD081
:1035C000A2F57C4293420BD002F58062934207D071
:1035D00002F58062934203D002F59A32934204D1FD
:1035E00025F080054A6815439D60012380F83D3031
:1035F000002380F83C30184630BC704702207047EA
:1036000000000140014B1868704700BF0C0000200B
:1036100070B50D4E0D4D761BB61006D0002401344A
:1036200055F8043B9847A642F9D1094E094D761B3F
:1036300005F004F8B61006D00024013455F8043B18
:103640009847A642F9D170BD5889000858890008EA
:103650006089000858890008F0B4860746D0541ED7
:10366000002A3CD0CAB2034602E014F1FF3436D33C
:1036700003F8012B9D07F8D1032C29D9CDB245EAD7
:1036800005250F2C45EA054533D9A4F11006360966
:1036900003F1200707EB061703F1100242E9045576
:1036A00042E902551032BA42F8D1721C14F00C0FE4
:1036B00003EB021204F00F0613D0331F23F00303B1
:1036C0000433134442F8045B9342FBD106F0030435
:1036D0002CB1C9B21C4403F8011B9C42FBD1F0BCC5
:1036E000704734461346002CF3D1F8E714460346DE
:1036F000C2E71A462646E0E730B59BB0074D009179
:103700006FF00044049169460594CDE9024500F04C
:1037100041F8009B00221A701BB030BD0802FFFF69
:1037200010B4044C13460A460146206810BCFFF74B
:10373000E3BF00BF0C000020024B13B1024800F0B1
:1037400005B8704700000000593700080023014603
:103750001A46184601F00EBD38B50A4C0A4D641BD6
:10376000A4100AD004F18043013B05EB8305013C22
:1037700055F804399847002CF9D1BDE8384004F0D9
:1037800063BF00BF6489000860890008704700BFFC
:10379000704700BF2DE9F04FD5B00C460B91934612
:1037A0000D930A9002F036FE036819931846FDF750
:1037B000C7FAA3891790180603D52369002B01F0D7
:1037C000088000235E461693CDE9293318931A9397
:1037D000CDE91C331B9308932BAB28939946337880
:1037E00000210022CDE91412002B00F02F82252B9E
:1037F00000F0AE86354603E0252B00F0E780254635
:103800006B786C1C002BF7D1A71B00F01F82DDE941
:10381000293201333A44072BC9F80060C9F8047013
:10382000CDE9293200F3D68009F10809089A6B78AE
:103830003A440892002B00F00982002394F801809A
:1038400009938DF88330069304F1010B4FF0FF3A92
:103850002B2720210BF1010BA8F120035A2B00F29A
:103860006283DFE813F05F016003600358016003C7
:10387000600360033501600360032A0125016003D2
:103880001E01120360033B02FA00FA00FA00FA007C
:10389000FA00FA00FA00FA00FA006003600360031D
:1038A00060036003600360039D02600370017600A3
:1038B0009D029D029D026003600360036003690135
:1038C000600360036200600360036003E102600361
:1038D000A2006003600309016003600360036003EA
:1038E00060036003600360039D02600370017A005F
:1038F0009D029D029D0207037A005B006003610246
:103900006003490266006C025B006003E1025F0035
:10391000A60060036003DB0060035F00069B43F0CA
:10392000200306939BF8008094E7069B43F0100366
:103930000693069B980640F1E6820D9C073424F01E
:103940000703F3E802450D93069B23F480670023E9
:1039500007E2069B43F010030693069B990640F18D
:10396000BF820D9C073424F007031946F1E80223B7
:103970000D9114461D46002A73F10003C0F2DF8545
:10398000BAF1FF3F00F0FA84069B23F0800754EA67
:10399000050340F0F484BAF1000F40F0F584069777
:1039A0004FF0000A574654AE32E3069B43F0100333
:1039B0000693069FBE0640F182820D9C073424F0D8
:1039C0000703F3E802450D930123CAE1A71B3FF467
:1039D00034AF1CE728AADDE90A0103F067FB80B9D0
:1039E0000DF1AC0922E728AADDE90A0103F05EFB2C
:1039F000002800F01C810C9B1BB10C990A9802F066
:103A00000FFC0B9B9B8913F0400F089B18BF4FF0D6
:103A1000FF330893089855B0BDE8F08FB34B189367
:103A2000069B98062DD50D9C073424F00703F3E878
:103A300002450D93069AD6070AD554EA050307D026
:103A4000302342F002028DF8858006928DF8843092
:103A5000069B23F48067022383E1A8F13003002250
:103A60001BF8018B02EB820203EB4202A8F1300348
:103A7000092BF5D90992EFE69D4B1893069B980602
:103A8000D1D406990D9AC90602F1040300F1978575
:103A9000069A570640F18D850D9A0D9314880025DE
:103AA000C8E79BF80080069B43F004030693D1E629
:103AB0008DF883709BF80080CCE60D9B9BF800800E
:103AC00053F8042B0992002AC0F260860D93C1E6D8
:103AD0000A9D284602F09EFC43681B931846FDF79A
:103AE0002FF91D900446284602F094FC83681C932D
:103AF0002021002C3FF416AF1C9B9BF80080002B6C
:103B00003FF4A8AE1B78002B3FF4A4AE069B43F411
:103B1000806306939EE6069B9BF8008043F00103BA
:103B2000069397E69DF883309BF80080002B7FF486
:103B300091AE8DF883108DE6069B9BF8008043F0D4
:103B40000803069386E60D9C002354F8042B8DF899
:103B5000EC2001271A4607970D94CDE912228DF823
:103B600083300C92924610923BAE069B13F00203F8
:103B70000E9302D0079B02330793069B2A9C13F0F7
:103B800084030F9304D1099B07995D1A002D69DC0A
:103B900072B1299A013201340DF183000121072A03
:103BA000CDE92924C9E9000100F3808309F108095E
:103BB0000E9B6BB1299B0133023421A90222072BF2
:103BC000CDE92934C9E9001200F37C8309F1080921
:103BD0000F9B802B00F08F82AAEB0705002D00F3CE
:103BE000CD82069BDA0500F12982299BC9F8006085
:103BF00001333C44072B2A94C9F80470299300F33D
:103C0000498309F10809069B590705D5099B079ABD
:103C10009D1A002D00F36283DDE9083207998A427C
:103C2000ACBF9B185B180893002C7FF4DCAE00231C
:103C300029930C9B1BB10C990A9802F0F1FA0DF133
:103C4000AC095E463378002B7FF4D1AD2A9B002B64
:103C50003FF4D7AE0B9C0A9828AA214603F026FA17
:103C6000A389D0E6102D299A29DD49462046B14680
:103C700010231E970A9C0B9E04E0103D102D01F1AD
:103C8000080118DD01321B4F1030072ACDE9292029
:103C9000C1E90073F1DD28AA3146204603F006FA97
:103CA00000287FF4A8AE103D102DDDE929202BA9B6
:103CB0004FF01003E6DC1E9F4E4604468946013253
:103CC0000C4B2C44072ACDE92924C9E9003500F31F
:103CD0005D8609F108099DF8832059E7069B9BF84A
:103CE000008043F080030693B4E500BFCC86000853
:103CF000E0860008008700080D9A52F8043B0D92F8
:103D0000069A970600F13A85069AD60600F1B7861C
:103D1000069A550600F14A87069A940540F1AF8647
:103D2000089A1A705E468DE79BF80080069BB8F1F2
:103D30006C0F00F0398543F0100306938AE50D9C63
:103D400047F6300254F8043BADF88420069A0D94EF
:103D50001C46B64B189342F00207002502234FF091
:103D6000780800228DF88320BAF1FF3F00F0E78049
:103D700027F08002069254EA050240F0DF80BAF193
:103D8000000F40F07786002B7FF40AAE17F0010792
:103D900000F0008430238DF84F310DF24F1637E1DB
:103DA0000D9C073424F00703F3E8021222F00044CC
:103DB000CDE914120D930D4608464FF0FF3221460F
:103DC0009B4BFDF79FF9002840F0098428462146C7
:103DD0004FF0FF32964BFDF777F9002840F0FF8354
:103DE00000220023DDE91401FDF764F9002840F00A
:103DF000C2869DF883208F4E8F4B06980021CDE917
:103E00001211032720F0800007970C910690B8F15B
:103E1000470FC8BF1E468A461091002A3FF4A5AE40
:103E2000079B01330793A0E60D9C54F8046B002513
:103E30008DF88350002E00F0DB84BAF1FF3F00F0D4
:103E40002386524629463046FCF7EAFF0C900028AC
:103E500000F090870C9BAA469F1B27EAE7730D94FE
:103E60000793CDF830A0CDF840A0CDE912AA9DF877
:103E70008320D2E79BF80080069BB8F1680F00F022
:103E80008A8443F040030693E4E45A4612F8018B17
:103E9000B8F12A0F01F04D81A8F13003092B9346A8
:103EA0004FF0000A3FF6D8AC1BF8018B0AEB8A0AE8
:103EB00003EB4A0AA8F13003092BF5D9CCE4069F9D
:103EC0000D9BFD0603F1040200F14D84069F7C0664
:103ED00040F138860D9B0D921C880025012340E798
:103EE000069A0D9BD20603F1040100F15B83069B49
:103EF0005B0640F151830D9B0D91B3F90040E5172E
:103F000022462B4637E506990D9AC90602F10403AD
:103F100000F16083069A570640F156830D9A0D937F
:103F20001488002510E5B8F1000F3FF48FAE002390
:103F300001271A4607978DF8EC800EE6069F012BA5
:103F400000F01D82022B00F0018254A900E03146EE
:103F5000E20842EA4572E80804F007030546144601
:103F6000303354EA050201F8013C01F1FF36EED18D
:103F7000F8074AD5302B48D03023023906F8013CE7
:103F800054AB06970E465F1A42E007F480630022A6
:103F9000CDE90689CDF830A054AEBA469046DDF89A
:103FA00070901F4607E0FCF749FD002D08BF0A2C62
:103FB00020D304460D460A22002320462946FCF75A
:103FC0003DFD02F1300C06F801CC204629460A22BC
:103FD000002308F10108013E002FE4D099F800C049
:103FE000E045E0D1B8F1FF0FDDD09D4208BF94421B
:103FF00080F07086CDF85880CDF870905746DDF887
:104000001880DDF81C90DDF830A0069754AB9F1B9C
:10401000002357450C931093CDE912333B46B8BFAC
:1040200053469DF883200793F7E600BFCC8600082F
:10403000FFFFEF7FBC860008C0860008B8F1650F5F
:1040400040F3D68000220023DDE91401FDF728F8B3
:10405000002800F0A181299BC54AC9F8002001333E
:1040600001340122072BCDE92934C9F8042000F3DB
:10407000D08409F10809229B169A2A9C934280F267
:104080008382299B199AC9F80020179AC9F804203D
:1040900001331444072BCDE9293400F38E8309F151
:1040A0000809169B5D1E002D7FF7ADAD102D299AD6
:1040B000B04B40F3BB841026DDE90A789A4605E050
:1040C00009F10809103D102D40F3AF84013210347E
:1040D000072ACDE92924C9E900A6F1DD28AA41462D
:1040E000384602F0E3FF00287FF485ACDDE929249F
:1040F0000DF1AC09E6E7099B079A9D1A002D7FF7A1
:104100006BAD102D299A9B4B28DD494620460E9712
:10411000B1460A9C0B9E1F4604E0103D102D01F194
:10412000080116DD013210301023072ACDE92920BD
:104130000F604B60F1DD28AA3146204602F0B6FF41
:1041400000287FF458AC103D102DDDE929202BA963
:10415000E8DC3B460E9F4E460446894601322C441D
:10416000072ACDE92924C9E9003500F37684AAEBB2
:104170000705002D09F108097FF733AD102D299AA5
:104180007C4B29DD494620460E97B1464FF0100A78
:104190000A9C0B9E1F4604E0103D102D01F1080102
:1041A00015DD01321030072ACDE92920C1E9007A56
:1041B000F2DD28AA3146204602F078FF00287FF47D
:1041C0001AAC103D102DDDE929202BA9E9DC3B4676
:1041D0000E9F4E460446894601322C44072ACDE9FB
:1041E0002924C9E9003500F39D8109F10809F8E4A3
:1041F000169A299B012A04F1010403F1010509F132
:10420000080740F34E810123072DC9F80060CDE96E
:104210002954C9F8043000F39E81179B199A691C30
:104220001C4407290F91CDE92914C7E9002300F3A5
:104230009E8108370F9A169D02F1010A0023002281
:10424000DDE91401CDF838A007F1080905F1FF38C0
:10425000FCF726FF002840F037810E9BC7F804804A
:1042600001364444072B3E602A94299300F37E8351
:104270000F9A07F1100302324F460E9299461A9A8E
:104280007A6014440E9A2A9424AB072A29923B6040
:104290007FF7B9AC28AADDE90A0102F007FF002880
:1042A0007FF4A9AB2A9C0DF1AC09ACE428AADDE9A6
:1042B0000A0102F0FBFE00287FF49DAB2A9C0DF161
:1042C000AC0975E428AADDE90A0102F0EFFE002836
:1042D0007FF491AB2A9C0DF1AC0979E4102D299B58
:1042E00020DD1026DDE90A7804E0103D102D09F1EB
:1042F000080917DD0133204A1034072BCDE9293492
:10430000C9E90026F1DD28AA4146384602F0CEFE72
:1043100000287FF470AB103D102DDDE929340DF13C
:10432000AC09E7DC0133144A2C44072BCDE92934CE
:10433000C9E900257FF770AC28AADDE90A0102F07F
:10434000B5FE00287FF457AB2A9C65E4189854AE5C
:10435000230904F00F0143EA05732A091C46154698
:10436000435C06F8013D54EA0503F1D14DE600BF78
:10437000FC8600081087000800870008069F002DB3
:1043800008BF0A2CBFF401AE303406978DF84F41B8
:1043900001270DF24F163BE6229B002B40F30583CD
:1043A000129B169A9342A8BF1346002B1D460DDDA3
:1043B000299BC9F8006001332C44072B2A94C9F8C3
:1043C0000450299300F3798409F10809129B002D08
:1043D000A8BF5B1B002B1D4600F31982129B3344C0
:1043E0009A46069B5F0500F13982229B169A9342FA
:1043F00003DB069AD50740F1D083299A1999C9F8A9
:1044000000101799C9F8041001320C44072A2A94A5
:10441000299200F3758409F10809169AB518A5EBDD
:104420000A05D31A9D42A8BF1D46002D0DDD299A0D
:10443000C9F800A001322C44072A2A94C9F8045074
:10444000299200F3648509F10809002DACBF5D1BBA
:104450001D46002D7FF7D7AB102D299AC54B40F391
:10446000E5821026DDE90A789A4605E009F1080997
:10447000103D102D40F3D98201321034072ACDE9C6
:104480002924C9E900A6F1DD28AA4146384602F0F0
:104490000DFE00287FF4AFAADDE929240DF1AC0957
:1044A000E6E7069AD0073FF5AEAE0122072DC9F820
:1044B0000060CDE92954C9F8042000F35782023383
:1044C0000E9309F11009DAE6B8F1000F7FF7D7AEC5
:1044D000B8F1100FA74B40F32A861A4655462346DB
:1044E0001026DDF82890DDF82CA0144607E00837E8
:1044F000A8F11008B8F1100F40F30C830135103308
:10450000072DCDE92953C7E90046F0DD28AA514619
:10451000484602F0CBFD00287FF46DAADDE929535F
:104520002BAFE5E728AADDE90A0102F0BFFD00286C
:104530007FF461AA2A9C0DF1AC09FFF752BB2D2331
:1045400064428DF8833065EB4505069F01230BE43B
:104550003446FFF772B928AADDE90A0102F0A6FD88
:1045600000287FF448AADDE929542BAF55E628AA94
:10457000DDE90A0102F09AFD00287FF43CAADDE99A
:1045800029342BAF0F9355E6069BDB073FF579AD3A
:10459000FFF739BB54AE3BE5069B13F4007F0D9B40
:1045A00040F01A831C680D91E51722462B46FFF751
:1045B000E2B9069A12F4007F0D9A40F0FC8214686A
:1045C0000D930025FFF736BA069A12F4007F0D9A74
:1045D00040F0F68214680D930025FFF7B5B9DDE9C8
:1045E000140102460B46FCF78DFD002840F049857A
:1045F000B8F1610F00F0DE84B8F1410F00F0DD8307
:1046000028F02003BAF1FF3F079300F0FB82472B0D
:1046100004D1BAF1000F08BF4FF0010A1599069AAC
:104620000D1E42F48073C0F265840021149F1E9118
:104630000E9206930C91079B462B00F06F83452B3F
:104640003A462B4600F0BB8426A823A90490039188
:1046500022A802210290CDF804A000910A9800F04F
:104660005FFE079B472B064640F072850E9BDB07DB
:1046700000F16784269FBB1B1693229B1293079B16
:10468000472B00F0DE82079B462B00F07F830799C3
:10469000129B412903F1FF325FFA88F303BF0F3306
:1046A000DBB201210021002A8DF89030B8BF129BA7
:1046B0002292B6BFC3F101022B232D23092A8DF8C4
:1046C000913040F3EA840DF19F0420462A4D01E029
:1046D00008461A4685FB0231D317C3EBA10303EB4F
:1046E0008301A2EB41013031632A00F8011C00F183
:1046F000FF31EDDC3033821EDBB2944201F8013C25
:1047000040F222850DF1920201E011F8013B02F81E
:10471000013BA142F9D10DF1A1030DF192021B1A47
:10472000134424AA9B1A1A93169B1A9A012B02EB84
:10473000030740F3CE84179B1F440E9B002223F4F3
:10474000806343F48073CDE91222069327EAE7736E
:10475000109207931E9B002B40F09A829A469DF878
:104760008320FFF75ABB1C680D9200250123FFF739
:10477000F8BA00BF1087000867666666089A104698
:10478000D117C3E900015E46FFF75CBA52420992B5
:104790000D93FFF788B943F400739BF801800693EB
:1047A0000BF1010BFFF756B843F020039BF8018093
:1047B00006930BF1010BFFF74DB828AADDE90A01BA
:1047C00002F074FC00287FF416A92A9C0DF1AC09B4
:1047D00067E440210A9801F021FE0B9B18601861E4
:1047E000002800F0B8840B9A40235361FEF7E9BF1C
:1047F0005746062F28BF0627B2461096CDE9126607
:104800000C96324607970D94BF4EFFF706BB102D4E
:10481000299ABE4B40F3A481194610272346DDE9AF
:104820000A8A0C4605E009F10809103D102D40F3F5
:10483000948101321033072ACDE92923C9E90047C1
:10484000F1DD28AA5146404602F030FC00287FF4F2
:10485000D2A8DDE929230DF1AC09E6E7169BCDF8D6
:104860003CB0F3180E93139B12964A465646A74F38
:10487000DDF87080DDF874A02146DDE90AB9002B6F
:1048800033D0109B002B34D1139B013B08F1FF3830
:104890001393299B1B98106001335144072B2A91D5
:1048A000C2F804A0299356DC08320E9898F800301C
:1048B000851B9D42A8BF1D46002D0CDD299B16605F
:1048C00001332944072B2A915560299300F3B880BE
:1048D00098F800300832002DACBF5D1B1D46002D3E
:1048E0000BDC1E44139B002BCBD1109B002B00F044
:1048F0009981109B013B1093CBE7102D29981CDD6B
:10490000102404E0103D102D02F1080215DD0130E5
:1049100010310728CDE92901C2E90074F2DD28AA87
:104920004946584602F0C2FB00287FF464A8103DB7
:10493000102DDDE929012BAAE9DC013029440728E3
:10494000CDE92901C2E9007500F3A98198F800308A
:1049500008321E44C6E728AA4946584602F0A6FB7C
:1049600000287FF448A82A992BAA9EE728AADDE907
:104970000A0102F09BFB00287FF43DA8DDE9293401
:1049800001330E930DF1B4092BAF78E428AADDE9C9
:104990000A0102F08BFB00287FF42DA89DF88320EC
:1049A0002A9C0DF1AC09FFF7F3B8299A5849C9F8C8
:1049B0000010013201340121072ACDE92924C9F868
:1049C000041000F3DD8009F10809002B63D1069B78
:1049D000169A03F0010313433FF415A9299A199B72
:1049E000C9F80030179BC9F8043001321C44072A6B
:1049F0002A94299200F3F88009F10809169B0132E4
:104A00001C44072ACDE92924C9E900637FF7F9A8E6
:104A100040E428AADDE90A0102F048FB00287EF400
:104A2000EAAF0DF1AC09FFF726BB534601322C4427
:104A3000072ACDE92924C9E900357FF7E2A829E44E
:104A400028AA4946584602F031FB00287EF4D3AF2D
:104A500098F800302A992BAA3DE728AADDE90A0137
:104A600002F024FB00287EF4C6AF2A9C0DF1AC09AD
:104A7000FFF7B2B8012B069F7FF464AA84E4089A7A
:104A80001A605E46FFF7DEB83046FCF759F9AA46D1
:104A90000746FFF7E2B9299A1999C9F80010179942
:104AA000C9F8041001320C44072A2A94299200F311
:104AB0009B8009F10809002BA0DA5D421033134BEB
:104AC00080F24582194610272346DDE90A8A0C4602
:104AD00005E009F10809103D102D40F3358201323F
:104AE0001033072ACDE92923C9E90047F1DD28AAB7
:104AF0005146404602F0DAFA00287EF47CAFDDE948
:104B000029230DF1AC09E6E7F486000810870008B8
:104B1000FC86000822461C4613462A4601320E92A5
:104B200007F10802C7E900380E9B29934444072B7C
:104B30002A943FF71BAF01330E9302F10809174681
:104B4000FFF79DBB069F0D9B17F4007F3DD01C789F
:104B50000D9200250123FFF704B921461C460B46A0
:104B600001322C44072ACDE92924C9E900354CDC5F
:104B700009F1080932E42D228DF88320FFF73BB9B3
:104B800028AADDE90A0102F091FA00287EF433AF89
:104B9000229B2A9C0DF1AC0917E7169AB518A5EBD4
:104BA0000A05D31A9D42A8BF1D464EE4089A1A80F2
:104BB0005E46FFF747B814780D930025FEF73ABF1D
:104BC00014780D930025FEF7BFBE1C68069F0D925A
:104BD00000250123FFF7C5B893F900400D91E517B3
:104BE00022462B46FEF7C7BE28AADDE90A0102F0DD
:104BF0005DFA00287EF4FFAE229BDDE929240DF149
:104C0000AC0958E74FF0060A08E528AADDE90A01D1
:104C100002F04CFA00287EF4EEAE2A9C0DF1AC09AD
:104C2000FFF7DCBBB246169B129EDDF83CB0CDF818
:104C30007080F3189A4591460C4628BF9A46FFF7B4
:104C4000D4BB129BD81C01DB534505DDA8F102083B
:104C500028F0200307931AE5169B1946129B9942E8
:104C600000F365810E9AD20740F10982179A9F18C6
:104C70000E9B5B0503D5129B002B00F3D28127EA24
:104C8000E77307934FF0670800231093139361E5D0
:104C90002D228DF883204FF0000AFFF7C1B828AA13
:104CA0004946584602F002FA00287EF4A4AE98F86D
:104CB00000302A992BAA1E4414E628AADDE90A012D
:104CC00002F0F4F900287EF496AE2A9C0DF1AC09AE
:104CD000FFF77CBB1D9B1B99F61A1A46304602F063
:104CE000ABF999F801300BB109F101090A2200234F
:104CF000204629464FF00008FBF7A0FEFFF759B900
:104D000028AADDE90A0102F0D1F900287EF473AE89
:104D1000229B2A9C0DF1AC09FFF77FBB26A823A993
:104D20000490039122A803212B4602903A46CDF825
:104D300004A000910A9800F0F3FA0378302B06469D
:104D400000F0BA81229B5344F418384629460022C9
:104D50000023FCF7A5F908B127468CE4269FA7425B
:104D6000BFF489AC30227B1C26933A70269FBC424C
:104D7000F9D880E45746CDF81CA00D9482461090D7
:104D8000CDE912009DF88320FFF747B80E9B129AD9
:104D900003F00103002A43EA0A0340F3A981002B30
:104DA00040F06781129F4FF066080E9B5A0500F194
:104DB0003A8127EAE773079366E730238DF884305A
:104DC00058238DF88530069BBAF1630F43F0020338
:104DD0000E9300F3058100230C933BAE069B43F436
:104DE0008173069328F020030793159B1D1EC0F2C4
:104DF00086800023149F1E93B8F1610F00F0FB80A2
:104E0000B8F1410F7FF417AC22AA3846294602F0C8
:104E1000C9F800224FF07F53FBF7AEFB00220023BE
:104E2000CDE91001FCF73CF908B101232293B84BFE
:104E30000F930AF1FF35CDE91289CDF858B0CDF8BE
:104E40007CA0DDE91089DDF83CB01096B24603E0A5
:104E5000FCF726F920BBBA460022AE4B4046494635
:104E6000FBF78AFB89468046FCF762F90646FBF7AA
:104E700019FB02460B4640464946FBF7C5F9574623
:104E80001BF8064007F8014BB5F1FF3F2C46804662
:104E900089464FF000024FF0000305F1FF35D7D1EE
:104EA0004046494600229C4BDDF858B0DDE91289A6
:104EB0003546CDF848A0109EDDF87CA0CDE9100164
:104EC000FCF716F9002858D1DDE910010022924BB9
:104ED000FCF7E6F810B12B46DD074ED4002CFFF6A8
:104EE000CAAB631C3B44302207F8012B9F42FBD125
:104EF000FFF7C1BB069A0E9200220C920693DDE9E1
:104F000014341F462D2304F100451E9374E728AA8C
:104F1000DDE90A0102F0CAF800287EF46CAD229B9C
:104F2000169A2A9CD31A0DF1AC09FFF78EBADDE967
:104F300016329F18129B002B40F3D1804FF0670868
:104F400033E706EB0A0400E721461C460B46013214
:104F50002C44072ACDE92924C9E900357FF74CAD57
:104F600028AADDE90A0102F0A1F800287EF443AD89
:104F7000DDE929240DF1AC0940E5129B26930F9B36
:104F800017F8012CD97B8A423B4609D1302003F81F
:104F9000010C269B5A1E269213F8012C9142F6D042
:104FA000392A0BBF0F9A0132927AD2B203F8012C40
:104FB000FFF761BB30238DF88430782301E726A802
:104FC00023A90AF101040490039122A8022101946B
:104FD000029000910A9800F0A3F906463444B4E622
:104FE0000AF101010A9801F019FA0646002800F0BA
:104FF000BA800C90F2E622AA3846294601F0D2FF88
:1050000000224FF07F53FBF7B7FA00220023CDE9CF
:105010001001FCF745F808B1012322933F4B0F9391
:1050200007E74FF067081C9800221092139203784C
:10503000129AFF2B0CD093420ADA4178D21AA1B10E
:10504000139B013313930B46FF2B00F10100F2D1A8
:105050001292139B109A1C9013441D9A02FB037723
:1050600027EAE7730793FFF775BB10990131109199
:10507000DFE7179BD71857444FF0660895E6129F55
:10508000F6E5159B264E002BB6BF2D229DF88320FA
:105090008DF88320234BFEF7B0BE002944D1302386
:1050A0008DF892300DF19303303203F8012B24AACE
:1050B0009B1A1A93FFF738BB384629460022002373
:1050C000FBF7EEFF00287FF43DAECAF10103229307
:1050D00039E60E9BD9077FF530ABFFF72CBBC3F148
:1050E00001031F4427EAE77307934FF06708CBE5F6
:1050F0002BB9012307931F464FF06608C4E5179BA1
:105100005F1C574427EAE77307934FF06608BBE537
:10511000E0860008000030400000E03FCC86000838
:10512000C4860008C88600080DF19203BCE74A4611
:10513000F8E40D9B9BF8018053F8040B0D93934604
:1051400040EAE07AFEF786BB02231A93FFF7ECBA37
:1051500054463444F9E50A9A0C2313604FF0FF33A8
:105160000893FEF757BC0B9A938943F04003938151
:10517000FEF749BC2DE9F0411E4C054620689046DB
:105180001F460E46FEF702FB1B4B1A68D2F8483149
:1051900033B35A6820681F2A27DC4DB9911C0132AD
:1051A0005A6043F82160FEF7F3FA0020BDE8F08171
:1051B00003EB82010124C1F8888004FA02FED3F8CF
:1051C0008841022D44EA0E0CC3F888C1C1F8087169
:1051D000E4D1D3F88C114EEA0104C3F88C41DDE729
:1051E00002F5A673C2F84831D3E7FEF7D1FA4FF0C3
:1051F000FF30DBE738040020B88600082DE9F04FC7
:1052000003690F69BB4283B0C0F28680013F01F1A0
:10521000140600F1140A56F827305AF82720BC006B
:105220000133009406EB04099A425444B2FBF3F8AC
:1052300001943AD300252A46B646D4465EF8044B7C
:10524000DCF800301FFA84FB08FB0B554FEA154BC6
:10525000240C08FB04B4ADB2551BA2B2C2EB13423E
:1052600015FA83F302EB23429BB243EA0243F14572
:105270004FEA14454CF8043B4FEA2242DED2009B31
:105280005AF803308BB9019A131F9A450CD252F881
:10529000043C4BB9A2F1080302E01A68043B1AB9B6
:1052A0009A4507F1FF37F8D30761044601F08CFDFA
:1052B00000282DDB08F101085046002356F8041B96
:1052C00005688AB29A1A0B0C12FA85F2C3EB1543E1
:1052D00003EB224392B242EA0342B14540F8042B69
:1052E0004FEA2343EAD25AF827200AEB87037AB918
:1052F0001A1F92450BD253F8042C42B9083B02E026
:105300001A68043B1AB99A4507F1FF37F8D32761A9
:10531000404603B0BDE8F08F002003B0BDE8F08F39
:105320002DE9F04F016C97B016461F468246239C2C
:10533000CDE9026749B1426C4A60012393408B601A
:1053400001F056FB0023CAF840303E1EB4BF0123D3
:1053500000232360764BBCBF26F000460396B34380
:1053600000F0B080DDE902340022CDE90A341846AD
:1053700021460023FBF794FE054678B1229A0123CB
:105380001360249B002B00F02E836A4B249A136039
:10539000013B0593059817B0BDE8F08FDDE90A7869
:1053A00014AA15ABCDE9003250463A46434601F007
:1053B000A3FD340D834640F09B80DDE914542C445A
:1053C00004F23243202B40F3DD83C3F140039E40BF
:1053D000029B04F2124023FA00F03043FBF752F82C
:1053E000A1F1F87301210246013C0F9110461946C4
:1053F0000022514BFAF708FF47A3D3E90023FBF73C
:10540000BBF847A3D3E90023FAF700FF064620467E
:105410000F46FBF747F844A3D3E90023FBF7ACF8AA
:1054200002460B4630463946FAF7F0FE06460F466E
:10543000FBF77EFE00228146002330463946FBF70B
:1054400039FE002840F0C2822C1B631EB9F1160FF2
:10545000069300F2AF82394B03EBC903D3E9002373
:10546000DDE90A01FBF726FE00286DD000230E932C
:10547000069B002B09F1FF39C0F2A282002308939A
:10548000B9F1000F66DA089BCDF81C90A3EB090375
:105490000893C9F100030D93209B092B4FF00009DD
:1054A00061D8052B40F36C83043B20930024209BA0
:1054B000023B032B00F24B86DFE813F08A048704DB
:1054C0005D047A04229A42F20F731360029BC6F3C2
:1054D0001306334318D1249B002B00F02F86184B62
:1054E00005930833249A0598136017B0BDE8F08F30
:1054F000C8F3130141F07F530F953A46A4F2FF34ED
:1055000043F44013149D71E7249B002B40F0228448
:105510000C4B05933EE700BF61436F63A787D23F03
:10552000B3C8608B288AC63FFB799F501344D33F92
:105530000000F07FFD8600080000F83F5887000853
:105540002487000820870008069B002BC0F28C846B
:105550000E900890069B4B44CDE9063900230D932D
:10556000209B092B9DD900234FF0FF350124209368
:1055700009950C9421930021CAF8441010955046C7
:1055800001F010FA0E2D0590CAF8400000F22081BB
:10559000002C00F01D810799002940F36784BD4B62
:1055A00001F00F020E1103EBC203F006D3E9004530
:1055B00040F12D84B84BDDE90A01D3E90823FBF75C
:1055C00005F9CDE9020106F00F064FF0030886B198
:1055D000B14FF10709D520462946D7E90023FAF74C
:1055E000CBFF08F1010804460D46761007F10807C5
:1055F000EFD122462B46DDE90201FBF7E7F806462C
:105600000F460E9B43B10022A44B30463946FBF7B0
:1056100051FD002840F020854046FAF743FF32460E
:105620003B46FAF7A9FF9E4B0022FAF7EFFD099BD4
:105630000446A1F15075002B00F0AE80079BDDF809
:105640002480119339463046FBF772FD0290FAF739
:1056500029FF02460B4630463946FAF7D5FD029A35
:105660008C4B06460F460C980599303203EBC80365
:10567000CDE90245D5B24C1C53E90223002800F0C5
:10568000638400208749FBF7A1F8DDE90223FAF7DC
:10569000BBFD059B32461D703B46CDE90201FBF781
:1056A00027FD002840F0998432463B4600207B4984
:1056B000FAF7AAFD02460B46DDE90201FBF718FDE9
:1056C000002840F03785B8F1010F7DD0059BCDE96A
:1056D00012B99844D146DDE902AB0DE000206F49D4
:1056E000FAF792FD52465B46FBF7E4FC002840F0D7
:1056F000F684A04500F0FA845046594600226A4BD1
:10570000FAF73AFF0022684B82468B46304639460C
:10571000FAF732FF0F460646FBF70AFD0546FAF791
:10572000C1FE02460B4630463946FAF76DFD30356C
:10573000EDB252465B4604F8015B06460F46FBF7A6
:10574000B9FC32463B460028C8D0119BDDF848B072
:105750000133CA4607935946504601F049F90023E0
:105760002370229B1A46079B1360249B002B3FF457
:1057700011AE05981C6017B0BDE8F08F4046FAF7EF
:1057800091FE32463B46FAF7F7FE0022444BFAF709
:105790003DFD0446A1F15075304639460022434B89
:1057A000FAF732FD22462B4607468846FBF7A0FC57
:1057B0000646002840F0B383224605F100433846F0
:1057C0004146FBF777FC30BBDDE90A34CDE9023412
:1057D000159B002BC0F2CA80079A0E2A00F3C680E0
:1057E0002C4B03EBC203D3E90089219B002B17DA72
:1057F000099E002E14DC40F0618400222B4B4046B1
:105800004946FAF7B9FEDDE90223FBF767FC0028F9
:1058100000F08683099E3546219B059CDB436DE2A3
:10582000DDE9024542464B4620462946FAF7CEFFBF
:10583000FBF77EFC0290FAF735FE42464B46FAF73C
:105840009BFE02460B4620462946FAF7DDFC029BEA
:10585000059C079A303304F8013B099B0132012B68
:1058600006460F46079255D000220F4BFAF784FEEA
:105870000022002306460F46FBF712FC00287FF4A7
:105880006AAFCDF808B00125DDF824B0CDF818A036
:1058900019E000BF58870008308700080000F03F7B
:1058A00000001C400000E03F0000244000001440C5
:1058B000FAF762FE0022002306460F46FBF7F0FBD4
:1058C000002840F0238342464B4630463946FAF7DB
:1058D0007DFFFBF72DFC8246FAF7E4FD42464B467E
:1058E000FAF74AFE02460B4630463946FAF78CFC78
:1058F00001350AF1300CAB4506460F464FF0000269
:10590000AD4B04F801CBD3D1DDF808B0CDF808A039
:10591000DDF818A032463B4630463946FAF776FCA9
:1059200042464B4606460F46FBF7E2FB60B942464D
:105930004B4630463946FBF7B3FB00283FF40BAF2C
:10594000029BDB077FF507AF14F8015C059A631E25
:1059500004E09A4200F0A68313F8015D392D03F1AB
:105960000104F6D06A1CD2B21A70F4E60C9A002A2E
:105970003FD0209A012A40F36882099B5E1E0D9B4E
:10598000B34280F242820D9B0D96F31A9944002691
:10599000099B002BC0F2BF82069A1146089A19444F
:1059A00014461A44069108920121504601F0C0F8AD
:1059B000054621E001230E93069B002BBFF65EAD4A
:1059C000C4F1010308930023069359E54846FAF70A
:1059D00069FD32463B46FBF763FB00287FF434AD9C
:1059E00009F1FF3930E5754B0593059817B0BDE80F
:1059F000F08F0D9E089C0C9D002C0CDD069A002A51
:105A000009DDA24208991346A8BF2346C91AE41A21
:105A1000D31A089106930D9BD3B10C9B002B00F079
:105A20009281002E10DD29463246504601F022F9BF
:105A30005A4601460546504601F084F85946074645
:105A4000504600F0D5FFBB460D9B9A1B40F07C8171
:105A50000121504601F06CF8B9F1000F064600F341
:105A60009780209B012B40F37A8100270120B9F118
:105A7000000F40F09880069A104410F01F0076D076
:105A8000C0F12003042B40F35D83089BC0F11C0090
:105A900003440244089304440692089B002B05DD4E
:105AA00059461A46504601F035F98346069B002BAD
:105AB00005DD31461A46504601F02CF906460E9B8C
:105AC000002B40F02581099B002B40F3FC80079BB5
:105AD000013307930C9B002B7ED1059CDDF82480BD
:105AE000012703E000F08EFF013783463146584618
:105AF000FFF784FB474500F1300904F8019B4FF0A4
